:10000000D82E0020B1800000AD800000AD8000003F
:1000100000000000000000000000000000000000E0
:10002000000000000000000000000000AD800000A3
:100030000000000000000000AD800000AD80000066
:10004000AD800000AD800000AD800000AD800000FC
:10005000FD6F0000AD800000AD800000195700006A
:10006000AD800000BD6F0000CD6F0000DD6F0000AF
:10007000ED6F00000000000000000000AD800000F7
:10008000AD800000AD8000006D6000007D6000006C
:100090008D6000000000000000000000AD80000046
:1000A000AD800000AD800000AD800000AD8000009C
:1000B0000000000010B5064C2378002B07D1054B3B
:1000C000002B02D0044800E000BF0123237010BDC4
:1000D000C00300200000000040C20000084B10B523
:1000E000002B03D00749084800E000BF0748036819
:1000F000002B00D110BD064B002BFBD09847F9E731
:1001000000000000C403002040C2000040C2000004
:1001100000000000F0B5DE4657464E464546E0B5C5
:100120009346002836D00138C0B201308A46824456
:1001300000230020052290468022524294465246D7
:100140008A465E4691461FE04908013C002C15D0C6
:10015000DA09C6094000C0B25B00DBB23343DBB250
:100160000E002E40771EBE41D2B2B242ECD04246C3
:100170005040C0B262465340DBB2E5E75E46012222
:100180009346DA44CA4507D05246157808248021A0
:10019000B346DDE7030000E0B3465A4613705070E3
:1001A0003CBC90469946A246AB46F0BD10B582B025
:1001B00000230093024B0022024CA04702B010BD66
:1001C000E0FF0000E905000070B504000D00054BDC
:1001D0009847002800D070BD29002000024B9847A6
:1001E000F9E7C04665060000AD010000F0B583B038
:1001F00004000D0016000092094B0122094FB84778
:1002000000280AD00096064B012229002000054C48
:10021000A047002801D003B0F0BD0020FBE7C04696
:10022000F0FF000029060000F0B5D64600B586B004
:100230000290039192461D000CAB1F880F2402AB65
:100240009C4664440F4E09E02378524613409A4579
:1002500014D07B1E9BB2002F0FD01F0000940A4BBE
:10026000012203990298B0470028F2D1012DEBD06A
:10027000237852461342ECD100E0E72006B004BCDC
:100280009246F0BD29060000F0FF000010B582B0D4
:1002900096231B01009300230122024CA04702B0C9
:1002A00010BDC0462902000010B582B0034B009378
:1002B00001234022024CA04702B010BDFC06000002
:1002C00029020000F0B5DE4600B588B00390049125
:1002D00005921D000227334E04990398B047041E6F
:1002E0000CD004990398304B9847013FFFB2002F80
:1002F000F2D1200008B004BC9346F0BD0095FE2367
:100300001B02012204990398284CA047041E0ED119
:100310002B789B46059B9B450ED85B46043B302BB8
:1003200010D904990398204B9847E424DDE70499F9
:1003300003981D4B9847D8E7049903981A4B9847A0
:10034000A224D2E75B465A1ED2B26B1C0093FE2356
:100350001B0204990398154CA047041E04D004996D
:100360000398114B9847C0E75C46023CE4B207ABE8
:100370009B461A00290020000D4B98475B461A78CF
:100380002B5D9A4205D004990398074B9847E524C2
:10039000ABE72C1907AB5A7863789A42F3D16C78A3
:1003A000A7E7C046A9020000C90100002906000015
:1003B00015010000F0B5DE4657464646C0B588B088
:1003C000039002910592049310AB04CB93461B78E3
:1003D0009A4601262B4B984602255C460299039FBC
:1003E0003800C047002842D15346002B25D1009445
:1003F000049B059A02993800234FB847002825D15D
:100400000400224B049A9A4206D9200008B01CBC72
:1004100090469A46A346F0BD029D2900039C200009
:100420001B4B984707AB042229002000194CA0471A
:10043000041EEAD107AB5C78E7E70094049B059AB9
:1004400002990398144FB847002819D0013DEDB226
:10045000002DC3D1A3460400002ED6D002990398E4
:100460000E4B9847002CD0D0013EF6B2B4E7A3461D
:100470000400002EC9D002990398084B9847F3E76F
:100480000400C2E78D020000E9050000FFFD000046
:10049000A9020000C502000029060000C9010000F1
:1004A000F0B589B00390049117001E0013780593EE
:1004B000F30723D5022502231E4000230193009752
:1004C000FE231B02059A04990398194CA047041EA9
:1004D00026D1002E28D10F2204AB9C4662440499F9
:1004E0000398144B9847031E10D10F3304A98C4670
:1004F00063441B78DB0612D4040015E0059B981EAC
:100500001218C0B239000C4B9847D3E70500F02809
:100510000AD004990398094B98472C0004E0D4248E
:10052000013DEDB2002DC8D1200009B0F0BDC0469C
:10053000B5030000ED01000015010000C901000035
:10054000F0B587B004000D00160003AA114B180087
:1005500082C882C2110002780A706A460C3303CB4B
:1005600003C21B781370290020000B4B984700280A
:1005700007D1002E07D003236A4629002000074C2C
:10058000A04707B0F0BD032303AA29002000034CB5
:10059000A047F6E73CB70000AD010000A104000051
:1005A000F0B583B005000E00019308AB80CB1B783B
:1005B000084CA047041E02D0200003B0F0BD3B0051
:1005C000019A31002800044DA8479028F4D904006E
:1005D000F2E7C046A1040000C502000010B5014BBF
:1005E000984710BD81060000F8B500AF04000D006B
:1005F000961C11000931C908C9006846411A8D4688
:10060000180A08704B706B46981CB969044B9847E0
:10061000F2B26B4629002000024CA047BD46F8BD4F
:10062000C7A0000019070000F0B583B004000D005A
:10063000160001AA190A1170537013000222290032
:10064000064FB847002801D003B0F0BD089B320028
:1006500029002000024CA047F6E7C0461907000019
:100660004907000010B582B06B460733FF221A70AD
:10067000FE3A024CA04702B010BDC0461907000068
:1006800010B58EB004000368002B01D01D4B9847B5
:1006900001AA1D4B536000239360137680218903C8
:1006A0001161012149429182D36113622531535472
:1006B0009362083153540131535401315354D733A9
:1006C0001386B9330193114BD3820323137310495B
:1006D0002000104B984722680721D3691942FCD1AA
:1006E000136802210B43136000231020518B014239
:1006F00005D10133E1888B42F8D3102353830EB028
:1007000010BDC04679400000480D000010270000D1
:1007100000100042B13D000010B584B001AC4908A2
:10072000218062800293002323726372A3722100EE
:10073000044B98470300F0205A1E93415B42184037
:1007400004B010BDC943000010B584B001AC490825
:10075000218062800293002323726372A3722100BE
:10076000044B98470300F0205A1E93415B42184007
:1007700004B010BDB5430000F0B5DE4657464E4606
:100780004546E0B59346002836D00138C0B2013066
:100790008A4682440023002005229046802252424D
:1007A000944652468A465E4691461FE04908013CFF
:1007B000002C15D0DA09C6094000C0B25B00DBB2DC
:1007C0003343DBB20E002E40771EBE41D2B2B2429E
:1007D000ECD042465040C0B262465340DBB2E5E73F
:1007E0005E4601229346DA44CA4507D05246157840
:1007F00008248021B346DDE7030000E0B3465A46F3
:10080000137050703CBC90469946A246AB46F0BD72
:1008100010B5002202490020024B984710BDC04687
:10082000E0FF0000790B000010B5014B984710BDA8
:100830001108000010B50400020008490120084B0F
:100840009847002807D0220004490120044B98470C
:10085000002800D010BD0020FCE7C046F0FF0000DB
:10086000E50B0000F0B5C64600B582B080460D002D
:1008700016006B46DC1D0F4F09E0237842461340FB
:10088000984512D0731E9BB2002E0DD01E00220080
:1008900009490120B8470028F4D1012DEDD0237873
:1008A00042461342EED100E0E72002B004BC90467D
:1008B000F0BDC046E50B0000F0FF000010B5034A94
:1008C00000210120024B984710BDC046CC1000000B
:1008D0006508000010B5034A01214020024B9847EB
:1008E00010BDC046B630000065080000F0B5CE4629
:1008F00000B584B001900D000227294EB047041EB8
:100900000AD0284B9847013FFFB2002FF6D12000B4
:1009100004B004BC9146F0BD2A00FE21090201206A
:10092000214B9847041E0CD12B789946019B994581
:100930000AD84B46043B302B0AD91A4B9847E4247B
:10094000E1E7184B9847DEE7164B9847A224DAE711
:100950006A1C4B46581EC0B2FE210902124B984732
:10096000041E02D00F4B9847CDE74C46023CE4B240
:1009700003AB99461A00290020000C4B98474B46C0
:100980001A782B5D9A4203D0064B9847E524BAE7C4
:100990002C1903AB5A7863789A42F5D16C78B6E794
:1009A000D508000029080000E50B000079070000C9
:1009B000F0B5C64600B586B0029001910392984604
:1009C00001271E4E0225B047041E31D14346002B9D
:1009D0001AD1039A01990298194B9847041E1AD10B
:1009E000184B019A9A4204D9200006B004BC9046E4
:1009F000F0BD154B984705A90420144B9847041ED9
:100A0000F2D105AB5C78EFE7039A01990298104B9D
:100A10009847041EE8D0013DEDB2002DD3D1002F40
:100A2000E2D00C4B9847002CDED0013FFFB2C9E763
:100A3000002FD9D0074B9847F7E7C046BD08000004
:100A4000790B0000FFFD0000D5080000ED08000054
:100A5000E50B000029080000F0B5CE4600B582B0D5
:100A600005000C000778CB071CD502260223234083
:100A7000994600232A00FE2109023800154CA047A0
:100A8000041E1ED14B46002B1FD16B46D81D124BA6
:100A9000984700280DD16B4607331B78DB060FD42F
:100AA000040012E0B81E2A18C0B229000B4B984768
:100AB000DBE70500F02808D0094B98472C0004E03C
:100AC000D424013EF6B2002ED3D1200002B004BCE3
:100AD0009146F0BDB109000035080000790700001B
:100AE0002908000030B587B0040003AA0E4B180097
:100AF00022C822C2110002780A706A460C3303CB66
:100B000003C21B781370094B9847002805D1002CAD
:100B100005D003216846064B984707B030BD032136
:100B200003A8034B9847F8E754B7000011080000EA
:100B3000590A000070B50D0016001900064B9847C1
:100B4000041E01D0200070BD31002800034B9847DF
:100B50009028F7D90400F5E7590A0000ED080000D5
:100B600010B5014B984710BD690C000010B5014B42
:100B7000984710BD3D0D000070B582B0050016000D
:100B80006B46DC1D0623237001AB02221A700A0A91
:100B90005A709970104B9847210001200F4B9847CD
:100BA00004000F4B9847002C02D0200002B070BD0B
:100BB000094B984701A90320084B9847041E01D10F
:100BC000002D02D1064B9847EFE731002800034B78
:100BD00098470400F6E7C046310C00007D0D000088
:100BE0004D0C000070B582B00500160001AC032367
:100BF00023700B0A6370A170094B984721000320F2
:100C0000084B9847041E04D0074B9847200002B0B9
:100C100070BD31002800054B98470400F4E7C0463A
:100C2000310C00007D0D00004D0C0000A10D0000F6
:100C300010B5012202490348034B984710BDC04636
:100C400034080020F8070020BD68000010B500221D
:100C500002490348034B984710BDC04634080020A2
:100C6000F8070020BD680000F0B591B006005823D9
:100C7000C05C294C207000236370A37001A901227D
:100C80004A708B700A70254B98472378D909002247
:100C9000002904D15A09D20121498C4662441F27F8
:100CA0003B40012529009940916102AC2570002349
:100CB0000393049323746374A574E57423750C2261
:100CC000002108A8174B984703222423E254164B0F
:100CD000A361736CE360B36CA362F36CE362336D86
:100CE0002363736D6363316C104E22003000104B30
:100CF0009847346820000F4B98470740BD400E4B83
:100D00001D603268D369002BFCD123680222134393
:100D1000236011B0F0BDC046340800207579000092
:100D200000440041FDA0000000093D00F80700203C
:100D300011660000996F000000E100E070B50C4DF5
:100D40002C6820000B4B98471F2318401E3B834004
:100D5000802209498B502A68D369002BFCD18F333C
:100D600023752376236802229343236070BDC04617
:100D7000F8070020996F000000E100E010B582B292
:100D80000548064B9847122803D0002802D0F020CF
:100D900000E0F12010BDC046F8070020B169000056
:100DA00010B582B2FF230548054CA047122803D096
:100DB000002802D0F02000E0F12010BDF80700204C
:100DC000E967000070B582B005000E0000226B4696
:100DD000DA80064C6B46991D2800A0470028F9D1FF
:100DE0006B4606331B88337002B070BD0D64000083
:100DF00070B505008CB2034E21002800B0470028D2
:100E0000FAD170BDE1630000F0B591B08023DB053D
:100E1000009300230193FF2269460A8100228B720E
:100E2000CB720124242168464454013144540131D9
:100E30004354013143540A930531435405930382CB
:100E4000C376027602774276132383764277E123D4
:100E50005B02089380235B0303931B4B0C931B4B98
:100E60000D9301235B420E930F9303222E33C25442
:100E7000174D184B1D60184A184B1A60184A194B29
:100E80001A606A4618492800184B9847184F3B6863
:100E900098680021174EB0473B6858680021B0475A
:100EA0002E683000144B98471F2318408440134B82
:100EB0001C602A68D369002BFCD1336802221343DB
:100EC000336011B0F0BDC0460200160002001700EA
:100ED000DC030020A80D0020F10D0000A40D00206F
:100EE000C50D0000A00D0020001400429D60000010
:100EF000F001002089A30000996F000000E100E0EC
:100F000010B508000021014B984710BD590A000098
:100F100010B5034B1868E1218902024B984710BDB8
:100F200064040020E11E000010B50248024B9847FF
:100F300010BDC04628000020610B000010B5034B17
:100F40001868C8214900024B984710BD6004002072
:100F50009517000010B5034B1868C8214900024BD3
:100F6000984710BD600400209517000010B5024B93
:100F70001868024B984710BD60040020A11A0000B9
:100F800010B5C1B2024B1868024B9847002010BD43
:100F900060040020491A000010B50C001300C1B213
:100FA000024A10682200024CA04710BD60040020D5
:100FB000B918000010B50C001300C1B2024A106845
:100FC0002200024CA04710BD60040020351800002C
:100FD00070B584B00E0015000E246C4404232380E9
:100FE000C1B2064B18681E2301930094130032000F
:100FF000034EB04723882B8004B070BD60040020EE
:10100000E118000010B5C1B2024B1868024B9847B6
:1010100010BDC04660040020751A000010B5024BD8
:101020001868024B984710BD640400201922000084
:1010300010B5024B1868024B984710BD640400209D
:10104000E922000070B50D001600054C2068054B24
:101050009847328820682900034B984770BDC046E6
:1010600064040020092300000920000070B50D0071
:101070001600054C2068054B98472068320029006F
:10108000034B984770BDC04664040020192300003C
:101090006920000070B584B015000E246C44042350
:1010A00023801288054B1868782300932300044E90
:1010B000B04723882B8004B070BDC0466404002074
:1010C0002923000010B5024B1868024B984710BD49
:1010D00064040020F922000010B5C1B2024B186868
:1010E000024B984710BDC046600400208D020000EE
:1010F00010B5C1B2024B18684022024B984710BD90
:10110000600400204105000010B5C1B2024B186810
:101110000022024B984710BD6004002041050000EA
:1011200010B50A00C1B2034B18680023024CA04757
:1011300010BDC04660040020A104000010B50B00E3
:101140001278C1B202480068024CA04710BDC046E8
:1011500060040020C5020000F0B59DB00D0017002E
:10116000C1B20A4B18680023019303AC00943433D6
:101170002A00074EB047060022783A802100280056
:10118000044B984730001DB0F0BDC04660040020FD
:10119000A1050000C7A0000070B582B00C001500CA
:1011A0004A7812028B789B189BB20A78C1B2084821
:1011B0000068012601960094064EB047902803D996
:1011C00000232B8002B070BD23782B800020F9E72C
:1011D00060040020B5030000F0B583B00E001700D6
:1011E000C5B24A7812028B789B189BB20A781649CE
:1011F000086800210191F11C00912900134CA047BF
:101200000400EF2804D900233B80200003B0F0BD88
:101210000D4B186829000E4B9847041EF5D10A4B58
:101220001868012301930096FE231B020422290063
:10123000064DA847902802D833783B80E5E7002385
:101240003B800400E1E7C04660040020B5030000D5
:10125000AD01000010B5014B984710BDBD0800005E
:1012600010B54020014B984710BDC046E50A00006C
:1012700010B50020014B984710BDC046E50A00009C
:1012800010B51078014B984710BDC046ED0800001E
:10129000F0B59BB00D00170001AC002322003421F3
:1012A0002800064EB047060022783A802100280028
:1012B000034B984730001BB0F0BDC046350B000013
:1012C000C7A0000070B50C0015004B781B02897890
:1012D000C91889B2207801232200054EB047902812
:1012E00002D900232B8070BD23782B800020FAE7E1
:1012F000B1090000F8B50D001600CA1C4B781B029E
:101300008978C91889B2287800230E4CA0470400B8
:10131000EF2803D9002333802000F8BD0A4B9847FB
:10132000041EF9D101232A00FE2109020420054FE1
:10133000B847902802D82B783380EDE7002333801C
:101340000400E9E7B109000011080000F0B593B00E
:1013500000900C00160001930023137005AF342297
:10136000002138001A4B984702A81A4B020022CBE2
:1013700022C21B7813700021174B984714220121B9
:101380004020164B98473A00FE2109020720144BD3
:101390009847BB780A2B01D013B0F0BD271D02225D
:1013A0000E2102AB9C46614438000E4B98476B46B9
:1013B0001B79A3700123237038000B4B9847607092
:1013C0005923009AD35C6372337801333370E3E7B7
:1013D000FDA000006CB70000590A0000650800007D
:1013E000E50B0000C7A00000593A0000F0B583B03B
:1013F0006B46DD1D00232B70424F50220021380028
:10140000414B9847414CE12189022000404B9847CD
:1014100000232A00390020003E4EB04720003E4BFA
:1014200098472C783D4E30003D4B9847A100091954
:101430004900791823002A0030003A4EB0473A4B51
:1014400098472B78E418E4B2384EC82149003000A0
:10145000374B9847A10009194900791823002A0041
:101460003000344FB8473000334B98472B78E3189F
:10147000DBB2002B42D0234C013BDBB201339D0099
:10148000ED186D00651912E02C4B98470700607A43
:101490002B4B984703002B4E3A002B4930002B4F23
:1014A000B84730002A4B98470A34AC4226D06078BF
:1014B0000028F9D02378022B14D0032BE4D0012B81
:1014C000F2D11E4B98470700607A1D4B98470300E6
:1014D0001C4E3A001F4930001C4FB84730001C4BCF
:1014E0009847E1E7154B98470200A3781A49154839
:1014F000164EB0471348164B9847D5E7014B18785E
:1015000003B0F0BD10040020FDA000008400002006
:10151000E11E0000152400005D1D000028000020D1
:10152000610B00004D1300006D0B00000C0000204B
:1015300095170000211B00002918000099390000B0
:10154000813900003808002078B70000F5A40000B9
:1015500051A3000094B7000084B70000030080008E
:10156000C0184000014B18187047C04610040020F6
:1015700070B504000E001500052808D0022C09D013
:10158000032C4FD0C320012C00D16FE070BD4B4B1A
:101590001C78F3E74A484B4B98474B4D28004B4B80
:1015A00098474B4B1D600A2E1DD04A4A4A4B1A6081
:1015B0004A4A4B4B1A604B4A4B4B1A604B4A4C4BB6
:1015C0001A604C4A4C4B1A604C4A4D4B1A604D4ABB
:1015D0004D4B1A60C82149003B484C4B9847374B4C
:1015E0001C700020D2E74A4A3B4B1A60494A3C4BE8
:1015F0001A60494A3C4B1A60484A3D4B1A60484AB7
:101600003D4B1A60474A3E4B1A60474A474B1A60A7
:10161000474A484B1A60484A3B4B1A602A48474B96
:101620009847DCE7464B98472748284B9847454A58
:10163000294B1A60444A2A4B1A60444A2A4B1A60C2
:10164000434A2B4B1A60434A2B4B1A60424A2C4B9D
:101650001A60424A2C4B1A60032DC0D11848404BE7
:101660001860E12189023F4B9847B8E71448154BB1
:1016700098471548154B98473B4A174B1A603B4A09
:10168000174B1A603A4A184B1A603A4A184B1A60BC
:10169000394A194B1A60394A194B1A60384A234B98
:1016A0001A60384A234B1A60374A174B1A60032DC9
:1016B00095D13648364B984791E7C046D007002071
:1016C000840000205D1D00000C000020291800008F
:1016D000600400203D0F0000E80700206D0F0000AF
:1016E000D8070020810F0000E4070020990F0000B8
:1016F000DC070020B50F0000F0070020D10F00002C
:10170000E007002005100000F407002095170000F6
:10171000550F0000D9100000F11000002111000049
:101720003D11000059110000D9110000D40700201C
:1017300099110000EC07002009110000DD050000F0
:101740006D0B0000110F00001D1000003110000093
:10175000451000006D10000095100000C51000003D
:1017600064040020E11E0000290F00005512000053
:1017700061120000010F00008112000091120000B0
:10178000F5120000C51200007112000028000020B0
:10179000610B000030B58FB004000D000368002B12
:1017A00001D01E4B984701AA1D4B53600023936044
:1017B00013768021890311610121494291822531EB
:1017C00053549362083153540131535401315354EB
:1017D000D7331386FA239B00D38201952369D36103
:1017E0006369136203231373E16820000D4B98476C
:1017F00022680721D3691942FCD1136802210B43E7
:10180000136000231020518B014205D10133E18880
:101810008B42F8D3102353830FB030BD79400000C2
:10182000480D0000B13D000010B5014B984710BDB8
:1018300079400000F0B587B0019016001F0003AB9F
:101840004908198001225A80049600221A725A729D
:101850009A721900174B98470924164D00280CD08E
:1018600003A90198A847013CE4B2002CF6D1002856
:1018700003D000233B8007B0F0BD3378FF2B05D0A9
:10188000032B07D800233B80F020F4E700233B80A4
:10189000F020F0E703A9013B4B80731C4B600198DB
:1018A000044B9847002802D133783B80E3E70023BC
:1018B0003B80E0E7B543000010B584B001AC4908B7
:1018C00021801B8863800292002323726372A372BB
:1018D0002100024B984704B010BDC046C943000028
:1018E000F0B5DE4657464E464546E0B585B0019018
:1018F0000291160003921F001A88701C31002B4BB6
:1019000098470323320033703B8801333B803B0010
:1019100002990198264FB847071E07D0380005B036
:101920003CBC90469946A246AB46F0BD0020214BF8
:10193000984702000023910F9000801859411E4AD9
:101940000023801859411D4A00231D4FB8471D4BE5
:1019500098470E9B1A88002103981B4B98471B4EF3
:101960001B4B9946134B9846B2460E9B039A02991D
:101970000198C847071ED1D00020C04704000025A9
:1019800002002B0012196B410B48002180185941AD
:101990000A4A00230A4EB0470A4B984701235B428C
:1019A0009C46E2445346002BDFD1B7E7D9A00000A4
:1019B000B91800003D7E0000571B0000581B0000B6
:1019C0003985000001000020FDA00000E9030000AF
:1019D00035180000F8B506000D001400124FB84786
:1019E000002800D0F8BD069B1A88002120000F4B6C
:1019F000984700200E4B984702000023910F90005B
:101A0000801859410B4A0023801859410A4A002383
:101A10000A4FB8470A4B9847069B2200290030001E
:101A2000084CA047DEE7C046B9180000FDA0000042
:101A30003D7E0000571B0000581B00003985000048
:101A4000010000203518000000B585B003AB02226C
:101A50001A7049086A461180012269464A8001933A
:101A600000230B724B728B72014B984705B000BD7F
:101A7000C943000010B584B003AB01221A704908B5
:101A80006C46218069466280019300232372637251
:101A9000A372024B984704B010BDC046C943000072
:101AA00070B584B004006421144DA84700220023BF
:101AB00069460A804A800F326A4401920B724B7267
:101AC0008B7220000E4B984700200E4B98470E4A11
:101AD000002300210D4EB0470D4A002380185941C4
:101AE0000C4A00230C4EB0470C4B9847C8214900C4
:101AF0002000A847002004B070BDC0469517000024
:101B0000C94300003D7E0000DC050000798500002F
:101B1000BFCF6A00C0CF6A003985000001000020F5
:101B2000F0B5DE4657464E464546E0B58DB00390CB
:101B30008A469046994609AA764B12CB12C21100EA
:101B40001A880A809B788B7008AB04221A700D32B9
:101B50005A7022329A701032DA70002342461370A3
:101B60006D4B984700206D4B984706000027030FE8
:101B70000201921BBB4192185B4169480021801809
:101B80005941684A0023684EB047684B9847FE2485
:101B9000270024E005AA09AB110011CB11C1188858
:101BA00008809B788B700A2302A98C4663440B2122
:101BB000198004A9062008800338019000913100A3
:101BC00003985B4CA0470024002869D0310003989B
:101BD000584B9847023FFFB2002F00D18CE07E1C8B
:101BE000F6B20B22002105A8534B984704AB042200
:101BF0001A8005AA31000398504CA047041EC9D191
:101C0000042208A905A84E4B98470028DED105AA52
:101C1000072111703023537000239370D370137118
:101C2000033353715A339371533B02A88446634480
:101C3000198004A8018002390191009031000398B5
:101C4000404DA8470028C1D105A83F4B9847013413
:101C50000028BBD053461C1D04220D2102AB9C461C
:101C600061442000394B984753469F7002235246E7
:101C700013702000364B984753465870039B1B7EC9
:101C80005246537243461B780133DBB2424613700F
:101C90004B44082B39D00A239C46E244012495E7A3
:101CA00005A82C4B9847013400288FD053461C1DA3
:101CB00002220E2102AB9C4661442000234B984730
:101CC00053469F700223524613702000224B9847C0
:101CD00053465870039B1B7E5246537243461B78F3
:101CE0000133DBB2424613704B44082B0FD00A235A
:101CF0009C46E244012469E7270038000DB03CBC53
:101D000090469946A246AB46F0BD0127F5E701276C
:101D1000F3E7C046A0B70000A11A00003D7E000016
:101D2000571B0000581B00003985000001000020EF
:101D3000D5190000491A0000FDA000003518000068
:101D4000A9A00000E1180000E53C0000C7A00000C9
:101D5000013A0000A93C0000593A000070B50500A6
:101D6000046820000C4B98471F2318401E3B8340FB
:101D700080220A498B502A68D369002BFCD1236842
:101D80000222934323602A68D369002BFCD10133DC
:101D90002360002070BDC046996F000000E100E0A4
:101DA00070B504000E0005682800154B98471F23E6
:101DB00018401E3B8340802212498B502268D36911
:101DC000002BFCD12B68022293432B600E4A166233
:101DD000616B20000D4B984725682800084B9847F9
:101DE0001F2318401E3B8340064A13602268D369B4
:101DF000002BFCD12B68022213432B6070BDC04620
:101E0000996F000000E100E0680400209D60000080
:101E100070B5040005682800114B98471F2318402F
:101E20001E3B834080220F498B502268D369002BD0
:101E3000FCD12B68022293432B6025682800084BB5
:101E400098471F2318401E3B8340064A13602268B0
:101E5000D369002BFCD12B68022213432B6070BD89
:101E6000996F000000E100E0F8B506008DB25A2439
:101E7000084F29003000B847002805D0013C64B263
:101E8000002CF6D1122001E0002C00DDF8BD12205C
:101E9000FCE7C046E1630000F0B583B005000F0029
:101EA00000226B46DA8064240C4E6B46991D280094
:101EB000B047002809D0013CE4B2002CF5D16B46B4
:101EC00006331B883B70122006E06B4606331B88E6
:101ED0003B70002C00D1123003B0F0BD0D64000047
:101EE000F8B504000D000668002E17D03000304B06
:101EF00098471F2318401E3B834080222D498B505A
:101F00002268D369002BFCD13368022293433360EB
:101F10002268D369002BFCD101333360264A802329
:101F2000DB05136000235360FF21118100219372B0
:101F30000126242016540130165401301354013068
:101F400013549362053013549363D3635361138224
:101F5000D3761176117751761323937651770C3B14
:101F6000D372156203212633D154A36BD360E36B84
:101F70001363236C5363636C9363A36CD363616BD0
:101F800020000E4B9847050027683800084B9847FB
:101F90001F2318408640074B1E602268D369002B20
:101FA000FCD13B68022213433B602800F8BDC046C9
:101FB000996F000000E100E0680400209D600000CF
:101FC000F0B5D64600B582B001908A4608260124B5
:101FD00000270C4D08E00198A8470743FFB26400B2
:101FE000E4B2013E002E05D07F2153461C42F2D1BF
:101FF0000239F0E7002F00D01027380002B004BCEF
:102000009246F0BD691E0000F0B5DE46574680B529
:1020100083B001900D00934600239A460020002AC9
:102020001ADD104F7F26012407E00198B8470028E9
:1020300011D16400E4B2002C05D02B78310023428A
:10204000F3D17D21F1E7013553460133DBB29A46E6
:102050005B45E8DB00E0102003B00CBC92469B46D9
:10206000F0BDC046691E0000F0B5DE4657464E463C
:102070004546E0B587B0019003910B2302930A3BDC
:102080001C0090461DE00400012101985A4B98471E
:1020900000205A4B98475A2200230021584EB0473F
:1020A000584A002380185941574A0023574EB047D9
:1020B000574B9847002C79D0029B013B0293002B91
:1020C0007AD0002101984C4B984704AB9A1D5023BD
:1020D00013701378DBB2591EC9B21170002B07D0F0
:1020E00011000B78DBB25A1ED2B20A70002BF8D165
:1020F00043461B88002B67D0039B9B460027002389
:1021000099469A46434D2FE033787F225340012B66
:1021100015D96400E4B2002C17D053463370310057
:102120000198A847002FEFD1012CEDD10028AAD1AA
:1021300033787F225340012B01D90224EDE75B461F
:102140001B7823435A461370E3E7002F03D15B4605
:102150001B784246138001239C46E3440137BFB2FB
:1021600043461B88BB4206D95B464A461A70012487
:1021700004ABDE1DD1E70400012101981E4B9847F6
:1021800000201E4B98475A22002300211C4EB047C6
:102190001C4A0023801859411B4A00231B4EB0479C
:1021A0001B4B9847032F85D9122C83D1039B1B7897
:1021B0004246138000231C00200007B03CBC904620
:1021C0009946A246AB46F0BD012101980A4B9847BB
:1021D00000200A4B98475A2200230021084EB0479E
:1021E000084A002380185941074A0023074EB04788
:1021F000074B98475EE7C046111E00003D7E000079
:1022000079850000BFCF6A00C0CF6A003985000021
:1022100001000020991E0000F0B583B001900A254E
:10222000264E274F013DE1214902019C2000B04785
:10223000002101942000B8470400E121890201989F
:10224000B047002C16D06B1CECD100201D4B9847DA
:102250001D4A002300211D4CA0471D4A0023801861
:1022600059411C4A00231C4CA0471C4B9847002096
:1022700003B0F0BD0020134CA0470200002319005A
:102280008018594180185941154A00238018594136
:10229000114D144A0023A847104EB0470020A04714
:1022A000094A00230021094CA047094A002380184D
:1022B0005941084A0023A847B047D8E7A11D0000AC
:1022C000691E00003D7E0000DC05000079850000ED
:1022D000BFCF6A00C0CF6A0039850000010000202E
:1022E000571B0000581B000010B5BB21014B98473D
:1022F00010BDC046C11F000010B5CC21014B98474E
:1023000010BDC046C11F000010B57721014B984792
:1023100010BDC046C11F000010B58821014B984771
:1023200010BDC046C11F0000F0B5DE4657464E4600
:102330004546E0B585B002900191170003937721DF
:102340002A4B9847061E07D0300005B03CBC90468B
:102350009946A246AB46F0BD3A0001990298244B3B
:102360009847061EF0D10020224B98470200002318
:10237000910F9000801859411F4A0023801859413D
:102380001E4A00231E4FB8471E4B9847039B1A88CE
:10239000002101981C4B98471C4F144B9A461C4B2C
:1023A0009946B8468821029E3000D047039A019989
:1023B0003000C847061EC7D000200E4B98470400C7
:1023C00000252900001969410B4A00238018594152
:1023D0000A4A00230A4FB8470A4B984701235B4239
:1023E0009C46E0444346002BDCD1ADE7C11F000012
:1023F000092000003D7E0000571B0000581B000014
:102400003985000001000020FDA00000D107000078
:1024100069200000F0B5D6464F464646C0B58AB0A2
:10242000040004919146059309AB04261E70112205
:102430005A7022329A701032DA7000234A461370B2
:102440000722002107A8474B98470A2304AA94466D
:1024500063449A461E8003942000434B9847002013
:10246000424B9846984702000023910F9000801835
:1024700059413F4C0025001969413E4F3E4A002317
:10248000B8473E4EB04703983D4B98470020C047A1
:1024900002000023110F1001801A994100184941D0
:1024A00000196941344A0023B847B0478821039C8A
:1024B0002000344B9847524607A92000324B9847DA
:1024C000051E06D1042209A907A8304B9847002809
:1024D00009D00398244B984728000AB01CBC9046AA
:1024E0009946A246F0BD07A907220A7030234B7017
:1024F00000238B70CB700B7103334B715A338B718C
:10250000533B04A8844663441A80063A009206327C
:1025100003981F4EB0470028DBD107A81D4B9847F2
:1025200001350028D5D0049C251D04220D2104ABC3
:102530009C4661442800184B98476A46117DA1705B
:10254000032323702800154B984760704C23039990
:10255000CB5C63724B461B7801334A4613700125EE
:10256000B7E7C046FDA00000E92200003D7E000064
:10257000571B000039850000581B00000100002097
:1025800019220000C11F000069200000A9A000005E
:1025900029230000E53C0000C7A00000013A00002C
:1025A000002070470020704710B50122024B1A70BE
:1025B000024B1B68984710BDA8040020E4070020C8
:1025C00010B50122024B1A70024B1B68984710BDD0
:1025D000A8040020F407002010B5024B1B689847A0
:1025E00010BDC046F007002010B5024B1B6898478D
:1025F00010BDC046DC07002010B5024B1B68984791
:1026000010BDC046D407002010B5024B1B68984788
:1026100010BDC046EC07002010B5024B98470020C3
:1026200010BDC046ED130000F0B587B004000D00EA
:102630002A4B984702A92A4BC4CBC4C11B680B6024
:10264000002C49D0E223002D21D0020000212000DF
:10265000244B984700232B80234B984707000F22D9
:1026600022492000224B9847002F13D102992000C5
:10267000204B984701A90A230B7000234B702000C0
:102680001C4B984720001C4B9847288000231800BB
:1026900007B0F0BD0020194B984706004078184B52
:1026A0009847002803D001002000124B9847BF0034
:1026B00002ABF95820000F4B984720000E4B98476B
:1026C0000004000C013020183378022B02D0F3787C
:1026D0000370CFE7B378FBE7E223D8E7212E0000B1
:1026E000ACB70000FDA00000ED13000054B80000DE
:1026F000C7A0000039A500007FA500005D150000FF
:1027000099390000F0B585B004000D000378012B65
:1027100021D0002B05D0022B37D0032B4ED0C32065
:1027200017E019223249334B98472000324EB04708
:102730000004000C20180A230293002301930233A3
:10274000009300222D492E4FB8472000B047288023
:10275000002005B0F0BD09222A49264B98472000E9
:10276000254EB0470004000C20180A2302930023D2
:10277000019304330093033B00222049204FB847C4
:102780002000B04728800020E3E709221E49194BAA
:1027900098472000184EB0470004000C20180A2368
:1027A0000293002301930133009300221349144F35
:1027B000B8472000B04728800020CAE70922134903
:1027C0000C4B984720000C4EB0470004000C20181A
:1027D0000A2302930023019302330093013B00225A
:1027E0000649074FB8472000B04728800020B0E7CF
:1027F00014B80000C7A000007FA50000FCB70000CF
:10280000F5A4000030B800003CB8000048B8000053
:10281000F0B583B00C0016000878374B98470500D8
:10282000C520002D18D06878344B9847002815D063
:1028300001002000324B98472B78022B2BD0032B22
:1028400042D0012B4CD020002E4B984720180B2251
:102850002D492E4B9847C52003B0F0BD6B78002B57
:1028600013D10B2228492000284B98472000254DE2
:10287000A8470004000C20180A222549254B984738
:102880002000A8473080C520E6E70F22224920001B
:102890001E4B9847D0E720001A4FB8472018052252
:1028A0001E491A4B98472000B84780B2AB782018D1
:1028B0000A22009200221A49164DA8472000114B07
:1028C000984730800020C7E720000E4FB8472018F7
:1028D000052214490D4B98472000B84780B2E5E720
:1028E0002000084FB847201805220F49074B98478A
:1028F0002000B84780B2D9E75D1500009939000083
:102900006FA500007FA5000094B80000C7A00000DC
:10291000D0B90000F5A40000DCB70000A0B80000AA
:10292000ECB70000A8B80000B0B80000F0B5DE4673
:1029300057464E464546E0B585B001900291039258
:1029400004231380174B1B6898471024164B994695
:10295000164B98462700039A029901984B461B682C
:1029600098478246002814D00020C0470400002564
:102970002900001969410E4A0023801859410D4A67
:1029800000230D4EB0470D4B9847013FFFB2002F7B
:10299000E1D1504605B03CBC90469946A246AB46B4
:1029A000F0BDC046D8070020F00700203D7E0000A3
:1029B000571B0000581B0000398500000100002053
:1029C000F0B583B007000091019200241A4D200059
:1029D000A8478378BB421ED00134E4B2082CF6D15C
:1029E000009B59783000154B98470A2E15D00028C7
:1029F00017D0134C020013492000134B98472100B5
:102A00001248134B9847134B1B68019A00993800E2
:102A1000984703B0F0BD4678E2E701220E4B1A70EA
:102A2000E5E7074C03220D4920000D4B9847210094
:102A30000648074B9847E6E75D150000F9370000A8
:102A40003808002064B80000F5A40000CCB70000EE
:102A50005DA20000E0070020A804002074B8000078
:102A6000C7A0000010B51048104B0360104B436026
:102A7000104B8360104BC360104B0361104B83619C
:102A8000104B0362104B4362104B8362104BC362C6
:102A9000104B0363104B4363104B8363104BC363B2
:102AA000104B984710BDC046AC04002029260000FA
:102AB0000527000011280000A125000019260000AC
:102AC000A5250000A9250000C12500002D29000032
:102AD000D9250000E9250000C1290000F9250000E2
:102AE00009260000152D000030B5FFB00400204B72
:102AF0001A88204901A8204B98470A2101A81F4B9A
:102B00009847002801D0002303701D4B1B78002B31
:102B100010D11C4B1B78002B1BD11B4D01AB22008D
:102B20001A4928001A4CA04729001A481A4B9847FE
:102B30007FB030BD0022124B1A70134D01AB220042
:102B400016492800124CA04729001248124B9847FA
:102B5000EEE700220B4B1A700B4D01AB220010491F
:102B600028000B4CA04729000A480B4B9847DFE789
:102B7000700600202C0A0020C7A0000053A500000A
:102B8000A8040020A904002038080020D0B70000C5
:102B9000F5A40000CCB700005DA20000BCB70000A7
:102BA000C8B7000070B5174B1B78002B22D0042249
:102BB000154B5A6115491648164B984700281AD0EC
:102BC0000122154B1A701548154EB047154C104D83
:102BD00021002800144B98471448B047218828004A
:102BE000134B984700232380064B00221A700422BF
:102BF000054B9A6170BD0F490548064B9847002860
:102C0000DED1E0E7720600200044004178B8000001
:102C10002C0A0020DBA50000A904002080B80000D9
:102C2000E92A0000700600204D2E00008CB800003C
:102C3000813A00007CB80000F0B583B004000D00BC
:102C4000160004284DD02A4B1B78052B20D0DAB271
:102C5000052A0FD9062B10D0DBB2F12B23D10A2382
:102C6000020024492800244CA0472800234B984701
:102C700030800AE0013B022B15D8214B1A883280A4
:102C80001A8820492800204B9847002003B0F0BD47
:102C90000A23020017492800174CA0472800174BA9
:102CA00098473080F1E7164B1888002812D0154F4E
:102CB0003900164B9847124B18800A2300933B00AB
:102CC0002200134928000C4CA04728000B4B9847C2
:102CD0003080DAE70A23220006492800064CA04784
:102CE000F3E70A23042203492800034CA047CCE75A
:102CF000D4000020BCB90000F5A400007FA50000AE
:102D00001C060020F0040020C7A000003D36000093
:102D1000C8B90000002803D0024B1860002070479B
:102D2000E220FCE7EC040020F0B5C64600B588B010
:102D300007002E4B186004AA2D4B13CB13C21B683F
:102D4000136000242B4D2000A8478678B7421DD081
:102D50000134E4B2082CF6D14346022B1DD0FD23EA
:102D600042461340012B2BD0234C244A24492000F7
:102D7000244B98472000244B9847039A02994046D9
:102D8000224B984708B004BC9046F0BD03789846A3
:102D900043780293437A0393DEE702981C4B9847EB
:102DA000070003981B4B9847134C00963B00069A6C
:102DB00019492000134FB8472000134B9847DCE710
:102DC0000298134B984707000398124B98474346C5
:102DD0009B0004AA9A58084C00903B000F49200021
:102DE000084FB8472000084B9847C6E72006002048
:102DF00098B900005D15000038080020FCB90000FB
:102E00000CBA0000F5A4000051A3000071150000E9
:102E10009939000081390000D4B90000E8B90000F8
:102E2000962040007047000010B5031E0AD0002015
:102E3000002906D00A211800034B9847431E9841E9
:102E4000C0B210BD0020FCE7B7A50000F0B5CE462B
:102E500000B5DCB004000E00002800D159E3E225E3
:102E6000002900D156E3402200214CA8CC4B9847C2
:102E700031882000CB4B9847002800D138E39622B8
:102E80005200002101A8C64B98473A212000C64BAA
:102E90009847071E08D0051B013596235B009D420D
:102EA00000DD1D00002D06D14CAB032210210120B6
:102EB000BE4CA0472BE32A00210001A8BC4B984739
:102EC0002D04280C01A9BB4B984701AB1B78613B33
:102ED000DAB2122A51D89300B74AD3589F4600223B
:102EE000B64B1A70282101A8AF4B9847051E11D088
:102EF000292101A8AC4B9847002842D00135431B3B
:102F00009BB2082BD0D1102200212800AC4B98474F
:102F1000AC4B9847013796225200002101A8A04BE4
:102F200098473A213800A04B9847051E2CD0EA1B41
:102F30000132002AB8D0390001A89D4B98472821BA
:102F400001A8994B9847071E25D001A9781A994BDB
:102F500098479A4B1B78002B00D09CE001AB1B7864
:102F6000613BDAB2152A00D991E09300964AD35812
:102F70009F463022914B1A70B4E7FF228F4B1A7094
:102F800092E728000830B9E70A213800864B9847B5
:102F9000051E89D0CBE73A2101A8834B9847071E2D
:102FA00000D181E7D1E70122844B1A700137292132
:102FB00038007D4B98478146002800D174E796225F
:102FC000520000218148764B98474B46DB1B804AD4
:102FD00013801B041A0C39007C48754B9847774BBB
:102FE0001B78F02B00D19EE0794D28887749794BEA
:102FF00098472880714B1B78312B00D1CBE1DAB296
:10300000312A00D91BE1042B00D177E1042A00D832
:10301000EAE0062B00D198E1DAB2062A00D27FE17D
:10302000072B00D1A3E1082B00D05FE26A4B19689F
:103030000B7F4A7F12021A438B7F1B041A43CB7FFC
:103040001B06134300D146E2604A1078421E9041AD
:10305000C0B29847E0E00222584B1A70A6E701ABD5
:103060005B78692B03D10522544B1A709EE703222B
:10307000524B1A709AE70422504B1A7096E70622B8
:103080004E4B1A7092E707224C4B1A708EE7FF22C4
:103090004A4B1A7008E7302B05D0F02B9FD0FF2B3E
:1030A00000D101E782E701AB1B78693BDAB20E2A57
:1030B00035D89300494AD3589F46F0223F4B1A70A7
:1030C0008DE731223D4B1A7070E701AB5B78652BC1
:1030D00003D13422394B1A7068E73222374B1A7009
:1030E00064E701AB5B78722B05D0772B07D13722D1
:1030F000324B1A705AE73822304B1A7056E7FF22CB
:103100002E4B1A70D0E633222C4B1A704EE7352224
:103110002A4B1A704AE73622284B1A7046E7FF22DC
:10312000264B1A70C0E6013596225200002101A8F4
:103130001B4B98470A2128001B4B9847002800D1B9
:10314000B2E6421B00D1AFE6290001A8184B984710
:10315000282101A8144B9847051E00D1A4E601A917
:10316000401A144B984701AB1B78732B38D1F122CE
:10317000124B1A700135292128000B4B9847002863
:1031800000D191E6401BC0B2022800D08CE610228C
:10319000002128000A4B9847C0B20A4B984723E702
:1031A000FDA00000292E000053A500007535000089
:1031B0008DA50000ED360000B8B80000D400002056
:1031C00019A70000292D000004B90000F004002018
:1031D0001C060020E1350000EC0400205CB9000072
:1031E000FF22CF4B1A70FFE6022B61D0022A71D862
:1031F000012B00D07AE1CB4B19680B784A78120288
:103200001A438B781B041A43CB781B06134300D157
:1032100061E1C549C5489847042800D15BE1C04B2E
:103220001B78013B022B21D832002100C04B98476C
:103230000500002D00D06DE1BE4B98476AE1352BAB
:1032400000D1D5E0DAB2352A16D9372B00D114E1F6
:10325000DAB2372A00D2F9E0382B00D124E1F12A82
:1032600000D043E10022B04B1A8000203200210040
:10327000AF4B98470500DCE7332B00D1A1E0332AA0
:1032800000D9CCE0A74B19682423CB5C25228A5CAB
:1032900012021A432623CB5C1B041A432723CB5C60
:1032A0001B06134300D116E1A34A10689847B3E701
:1032B0009C4B19680B794A7912021A438B791B04CB
:1032C0001A43CB791B06134300D104E19649974872
:1032D0009847A1E7934B19680B7A4A7A12021A436E
:1032E0008B7A1B041A43CB7A1B06134300D1F2E0FE
:1032F000914A10688C4A8D4998478DE7894B196827
:103300000B7B4A7B12021A438B7B1B041A43CB7B39
:103310001B06134300D1DEE08349844898477BE7CE
:10332000804B19680B7C4A7C12021A438B7C1B046D
:103330001A43CB7C1B06134300D1CCE07B4A1078A8
:10334000421E9041C0B2984766E7764B19680B7DE4
:103350004A7D12021A438B7D1B041A43CB7D1B0648
:10336000134300D1B7E070497048984754E76D4B5C
:1033700019680B7E4A7E12021A438B7E1B041A4385
:10338000CB7E1B06134300D1A5E06B4A1068664A4A
:103390006649984740E7634B19682023CB5C21229C
:1033A0008A5C12021A432223CB5C1B041A43232398
:1033B000CB5C1B06134300D18DE05F4A1068984731
:1033C0002AE7584B19682823CB5C29228A5C120211
:1033D0001A432A23CB5C1B041A432B23CB5C1B060A
:1033E000134378D0544A10684F4A5049984713E71E
:1033F0004C4B19682C23CB5C2D228A5C12021A4399
:103400002E23CB5C1B041A432F23CB5C1B061343D8
:1034100061D0494A1068444A44499847FCE6414B08
:1034200019683023CB5C31228A5C12021A433223A2
:10343000CB5C1B041A433323CB5C1B0613434AD0DB
:103440003D4A1068384A39499847E5E6354B1968CE
:103450003423CB5C35228A5C12021A433623CB5CC0
:103460001B041A433723CB5C1B06134333D0324A69
:1034700010682D4A2D499847CEE62A4B1968382303
:10348000CB5C39228A5C12021A433A23CB5C1B04C0
:103490001A433B23CB5C1B0613431CD0264A1068FF
:1034A000214A22499847B7E61E4B19683C23CB5C5A
:1034B0003D228A5C12021A433E23CB5C1B041A4352
:1034C0003F23CB5C1B06134305D01B4A1068164AEA
:1034D00016499847A0E60022134B1A802D32FF327E
:1034E00000211248154B9847042098E6002096E6E4
:1034F000134D220013492800134B98472800134B03
:1035000098474CAB032210210120114CA047032502
:1035100000E0E22528005CB004BC9146F0BDC04646
:10352000D4000020EC0400201C060020F004002041
:10353000392C00005535000020060020FDA00000B9
:1035400038080020A8B90000F5A4000051A300002D
:103550007535000010B505480023036043608360A3
:103560000C3040220021024B984710BD2406002059
:10357000FDA0000070B51D00074C20606160A260D6
:103580000C34402200212000044B9847402229009F
:103590002000034B984770BD24060020FDA00000CA
:1035A0008DA5000002003038C0B209280DD91300E3
:1035B000413B052B07D900201300613B052B04D8A4
:1035C000573AD0B201E0373AD0B270470F230340E8
:1035D00018003730092B00D9704730331800FBE74B
:1035E000F0B5D6464F464646C0B582460F1E1FD0A0
:1035F00001281FD9002600250F4B9946BB19984674
:10360000785DC8470001C4B243461C707B195878E6
:10361000C847044343461C700235ADB20136B6B20A
:10362000AA45EBD830001CBC90469946A246F0BD96
:103630000026F7E70026F5E7A5350000F0B5DE46E1
:1036400057464E464546E0B583B0009001910029AB
:103650003FD0002807D1009803B03CBC9046994663
:10366000A246AB46F0BD05004400013420001A4BD1
:103670009847804622000021184B9847019A17006E
:103680002B00013B9BB2013393469B440024144B17
:103690009946651CADB2A246C2443E783009C8477F
:1036A000534618700234A4B245440F203040C84736
:1036B000287001375F45ECD1009B5B009BB2009303
:1036C0005A1C41460198074B98474046064B98477D
:1036D000C1E700230093BEE75DA00000FDA000004D
:1036E000CD350000C7A0000071A00000F8B5CE469F
:1036F000474680B5002918D0002816D00C000F18B6
:103700000C4B99460323984603E032700134BC42C7
:103710000BD026002578C84740194378424613400D
:103720002A00012BF1D12032EFE70CBC90469946DC
:10373000F8BDC04641A00000F0B583B01B4B9847D0
:1037400001A901244C7000238B700C700220184BCF
:1037500098470422174B9A61174B1C70BFF35F8F79
:1037600062B6164B9847164C164A17492000174D5B
:10377000A84721001648174B9847174B9847174FF3
:10378000174A39002000A8472000164EB047164BB4
:103790009847164A39002000A8472000B047144B2C
:1037A0009847144C0020A047FCE7C04681800000E9
:1037B0007579000000440041EC010020090E000072
:1037C0003808002014BA000094BA0000F5A40000E4
:1037D000CCB700005DA20000652A0000B0BA00006E
:1037E00098BA000051A30000ED130000B4BA000025
:1037F000653A0000A52B00000A2805D0802963D86F
:103800008900344B5B589F461A2931D88900324BC6
:103810005B589F4631485CE031485AE0314858E0F7
:10382000314856E0314854E0314852E0314850E0E8
:1038300031484EE031484CE031484AE0314848E0F8
:10384000314846E0314844E0314842E0314840E008
:1038500031483EE031483CE031483AE0314838E018
:10386000314836E0314834E0314832E0314830E028
:1038700000202EE030482CE01B482AE02F4828E0AA
:103880002F4826E02F4824E02F4822E01D4820E062
:103890002E481EE021481CE02D481AE0204818E080
:1038A0002C4816E0204814E02B4812E02B4810E08A
:1038B0002B480EE02B480CE02B480AE02B4808E090
:1038C0002B4806E02B4804E0002002E02A4800E0F4
:1038D0002A487047C0BA0000C4BC000078BD000090
:1038E00084BD000090BD0000A8BD0000B0BD000078
:1038F000B8BD0000C0BD000014BE00001CBE00002A
:1039000024BE000050BE00005CBE000068BE000087
:1039100074BE00007CBE000088BE000090BE0000A7
:103920009CBE0000A4BE0000C0BE0000D0BE0000CF
:103930001CBF000064BF00009CBD0000C8BD0000AB
:103940000CBE000040BE000048BE000058BE000093
:1039500098BE0000B4BE0000C8BE0000D8BE000083
:10396000E4BE000014BF000010BF000048BF00000C
:1039700054BF00005CBF000070BD00006CBD0000C3
:10398000022803D88000024BC05870470148FCE76A
:1039900030BE0000D8B700000738C3B2092B15D8D5
:1039A00098000C4B1B589F460B4812E00B4810E048
:1039B0000B480EE00B480CE00B480AE00B4808E00F
:1039C0000B4806E00B4804E00B4802E0002000E052
:1039D0000A48704730BD0000F8BE000058BD000026
:1039E00060BD0000D4BD0000DCBD0000E8BD0000EB
:1039F000F4BD000000BE000004BF0000F0BE0000E7
:103A00008378402B1AD0DAB2402A0CD8002B18D079
:103A1000102B1FD1C378023BDBB200220421994254
:103A200052410B320BE00D22502B08D0602B11D1EC
:103A3000C3780E22022B02D9023200E00F221000BE
:103A40007047C378073BDBB2002202219942524102
:103A50000732F4E70022F2E703780A200A2B00D0AD
:103A60000020704710B5044B98470122034B1A7091
:103A7000BFF35F8F62B610BDA5730000EC0100209C
:103A8000F0B5DE4657464E464546E0B593B0814612
:103A90000C00002852D000293CD032239846002741
:103AA000274B9B46274B9A461AE04346002B32D0C1
:103AB0000020254B984700900023019323480021C4
:103AC000009A019B80185941214A0023214DA847A3
:103AD000214B98474346013BDBB29846002C1AD055
:103AE000251C402C00D94025ADB24022002102A85F
:103AF000D847EAB24B46D91902A8D04702A8174BBB
:103B00009847061ED1D0FF231D40EF19BFB2641B9A
:103B1000A4B2E3E700269622520000211048084B89
:103B2000984700220F4B1A800F4B1A70300013B0C9
:103B30003CBC90469946A246AB46F0BD0026F5E750
:103B4000FDA00000C7A000003D7E0000571B000044
:103B5000581B000039850000010000206D71000035
:103B60002C0A0020700600207206002001207047F9
:103B70007047704730B50F4A138804780E49CC540B
:103B80000133138003780A2B0FD0421C40300949BF
:103B9000094D0B881478EC5401330B8013780A2BF1
:103BA00003D001328242F4D102E00122034B1A70A9
:103BB00030BDC046700600202C0A0020720600208E
:103BC00070470000F0B5D6464F464646C0B5914610
:103BD000002823D088460138C0B201308C46844486
:103BE0000023134A15E06408013D002D0CD0DE0BC4
:103BF0005B009BB220000840471EB841C0B2B042F3
:103C0000F1D053409BB2EEE701218A46D044E04513
:103C100005D04146097808258024E8E700231A0AE0
:103C200049460A704B701CBC90469946A246F0BDAE
:103C30000580FFFFF0B5D6464F464646C0B59446D0
:103C4000002824D089460138C0B20130884680441B
:103C50000023144916E06400E4B2013D002D0CD0AD
:103C6000DE0B5B009BB220003840421E9041C0B288
:103C7000B042F0D04B409BB2EDE701229246D144D6
:103C8000C14505D04A46177808250124E8E70023F6
:103C9000624613701B0A53701CBC90469946A2469C
:103CA000F0BDC0460580FFFF70B582B00500047806
:103CB000023CE4B201AE320001002000084B9847FC
:103CC00032782B5D00209A4201D002B070BD2C19D1
:103CD000607801AB5B78C01A43425841C0B2F4E748
:103CE000C53B000070B582B005000478023CE4B228
:103CF00001AE320001002000084B984732782B5D5E
:103D000000209A4201D002B070BD2C19607801AB3E
:103D10005B78C01A43425841C0B2F4E7353C00001A
:103D2000044A137802210B43137053785BB2002BC3
:103D3000FBDB70470018004000B583B0124A93695E
:103D400040210B43936101A900230B7005200F4B09
:103D5000984705200E4B98470E4A137801210B43D4
:103D6000137053785BB2002BFBDB0B4B1900403117
:103D7000002204C39942FCD11022084B1A60084B60
:103D8000984703B000BDC04600040040557F0000C6
:103D9000C97E000000180040580B002000E100E040
:103DA000213D000001680722CB691A42FCD170470F
:103DB000F0B5D6464F464646C0B58AB006000F005D
:103DC000140031600800974B9847974A116A851C88
:103DD0000123AB400B43136209A9237B0B70143002
:103DE000C5B22800914B98472800914B9847207BFB
:103DF0000021904B98473B681C209B0705D50AB0D3
:103E00001CBC90469946A246F0BD3B681738DB07BC
:103E1000F5D414233B60336898461800814B9847CB
:103E20000500802308AA137000235370012208A9FB
:103E30008A70CB70E069276A002800D1AFE008AB38
:103E40001870022308AA5370000CC0B211007A4BFC
:103E50009847002F00D1A7E008AB1F70022308AAE3
:103E600053703F0CF8B21100734B9847A38AF3804C
:103E7000E38A3381237E8022002B04D16F4B9B7811
:103E80009B07DB0FDA01A16823690B43134324224C
:103E9000A25C002A02D08022D2051343A26A1343F7
:103EA0002C22A25C002A03D180229204914202D1EA
:103EB0008022120513432D22A25C002A02D0802208
:103EC000120413432E22A25C002A02D08022D203C5
:103ED00013434246126813434246136080235B003B
:103EE000536028001430C0B2554B98470790FA230E
:103EF0009B0022685A43914663689A46514DA847F1
:103F0000009001914B465800A84702900391208EE3
:103F1000A847049005914C4F4C4A4D4B009801998D
:103F2000B84702000B0004980599B847494E002293
:103F3000494BB047049005914846A84702000B0042
:103F400004980599B84702000B00444D0098019968
:103F5000A847029A039BB0470022414BA847029A08
:103F6000039B404DA847404B9847050080239B0486
:103F7000A2689A421ED003004020FF2D00D93EE7E0
:103F800000240020FF251D40240625430004FF23B4
:103F90001B04184005434346DD6000202FE7002145
:103FA0004046324B98474AE7012140462F4B9847FD
:103FB000070051E7FA26B60053465E430098019980
:103FC00002000B00234CA0470090019130001D4BD4
:103FD00098470022264BB84702000B000098019931
:103FE000204CA04700221E4B1C4CA0471E4B98475C
:103FF000041E0CD0310007981E4B98470238001B56
:104000002B00FF2D0CD8FF28BCD94020F7E671000B
:10401000481E079B9C466044164B98470138EFE7C3
:104020004020ECE60D6F000000040040557F0000CA
:10403000C97E0000C56D00004D80000000200041D9
:10404000717F0000699F0000D593000095D626E897
:104050000B2E113E4D87000000002440D598000033
:104060000000F03F6D8D0000019F0000116E000008
:1040700000000840D1810000F8B504000768084E30
:10408000B04725682000B04783232B752B762B681B
:10409000022293432B602000B04701233B60F8BD10
:1040A000A53D000003681A7E920707D502221A7602
:1040B0005B8B9B074120DB17184070475A8B5207D8
:1040C00006D55968C02292020A435A601820F4E7C4
:1040D0000020F2E730B50268002301240225117E9A
:1040E00021420BD1117E294206D101339BB20189B5
:1040F0009942F4D8122002E0002000E0002030BDF8
:1041000010B5046862688023DB0213436360616258
:10411000024B98470123237610BDC046D5400000CE
:10412000F0B5DE4657464E464546E0B583B006003C
:10413000894605684C882B681B01DB0F9A464B7A31
:10414000002B2BD16B68584A13406B604B461B7A8F
:10415000002B27D14B461B885B004A46527A9203BC
:104160001343012213436B623000504B9847019078
:104170005346002B03D04B465B88012B3BD06B682A
:10418000494A13406B60019B002B3AD0019803B061
:104190003CBC90469946A246AB46F0BD897A444B5A
:1041A0009847CFE74B461B885B004A46527A9203FA
:1041B00013438022120213436B6230003B4B98473B
:1041C00001906B68384A13406B600028DED13000E4
:1041D000384B984701900028D8D14B461B881B0AC2
:1041E000782213435B004A46527A920301210A4324
:1041F00013436B62B8E76A688023DB0213436B608A
:10420000C1E730002B4B984701900028BED1013CFC
:10421000A4B28046284B9B4615E0012C20D03000EC
:10422000264B984743465F1CBFB22823EB5C4A46A7
:1042300052684146535430001C4B9847013CA4B28D
:10424000002815D1B8465C4514D06B8B9B0627D54A
:10425000F37A002BE3D05346002BDED1002CDED1C5
:104260006A688023DB0213436B60013CA4B2EAE777
:10427000B8460190B37A002B09D130000F4B984714
:104280002823EA5C4B465B6841465A547EE730007F
:104290000A4B98476A68C0239B0213436B60ECE7A4
:1042A0004123019372E7C046FFFFFBFFD5400000AA
:1042B00001410000A5400000FFFF0000A53D0000F7
:1042C000F0B5DE4657464E464546E0B583B006009B
:1042D0000F0005684C88324B98477B7A002B1DD124
:1042E0006B68304A13406B603B7A002B1BD03B88D5
:1042F0005B007A7A920313438022120213436B62AB
:104300003000294B98470190002813D0019803B042
:104310003CBC90469946A246AB46F0BDB97A300007
:10432000224B9847DCE73B885B007A7A9203134381
:104330006B62E5E730001E4B9847031E0190E5D104
:10434000A046002420339946154B9B46164B9A46AF
:10435000444515D06B8B4A4613421DD03000D847D8
:104360007B681A5D2823EA543000D047002806D124
:104370006B8B01345B07EBD51E23019300E00190AA
:10438000B37A002BC2D03000054B98476A68C0232F
:104390009B0213436B60B9E741230193B6E7C04624
:1043A000A53D0000FFFFFBFFD540000001410000DC
:1043B000A540000010B501238372C372014B9847DA
:1043C00010BDC0462141000010B501238372C372A5
:1043D000014B984710BDC046C1420000034B1B78FB
:1043E000834201D0014B18707047C046CC060020B4
:1043F00043060BD00F2303405B00C0091818023896
:10440000830018188000024B181870470020FCE742
:104410007C060020F0B5D6464F464646C0B58946D4
:104420008D796BB2002B26DB28005E4B9847040089
:104430000F272F40038A98464B461B889A46837C59
:104440005B076AD4E36853441E00E360A3689E429E
:1044500000D874E0E360A37C01229343A374236833
:10446000002B03D0E1682A00002098471CBC90462E
:104470009946A246F0BD28004A4B984704000F27F2
:104480002F40038A98464B465E88C3689C46664424
:10449000C66081688E4225D08D1BADB2424B9D42D5
:1044A00006D91D0041461800404B98476D1AADB221
:1044B000A27C0023920707D5414628003C4B984731
:1044C00089B24B424B41DBB25B00A27C02218A43A2
:1044D0001343A374626892192B0039003548364C97
:1044E000A047C3E7837C9B070BD4837C01229343C3
:1044F00083740368002BB9D02A003100002098474C
:10450000B4E7837C022293438374426892190023A8
:1045100039002848284CA047A8E74368C268944659
:1045200063441E0041468068214B98470A007B1E69
:104530009B01224959183000214B984782E74A468F
:104540009288524500D086E79E4200D183E79B1BAC
:104550009DB2154B9D4216D91D0041461800134BC4
:1045600098476B1A9BB2984514D9A37C0422134335
:10457000A3747A1E9201114BD218434639000D489C
:10458000104CA04772E741462800094B98476B1A28
:104590009BB2E8E76268921939000648094CA047C7
:1045A00064E7C046F1430000FF1F0000B184000033
:1045B000DD820000180C002031560000980B00200E
:1045C000C7A000008556000010B50522054B1A70E3
:1045D000054C80212000054B984700212000044B0A
:1045E000984710BD78060020180C00208555000063
:1045F000AB55000070B5084C06212000074DA847B8
:1046000004212000A84702212000054B98470220E2
:10461000044B984770BDC046180C0020C5500000E0
:10462000A5500000DD43000070B5134B9B8C9B062A
:104630001CD41149D022CB681340D02BFBD10F4C96
:10464000022120000E4B9847042120000D4DA84761
:104650000D4A062120000D4B984706212000A8474F
:1046600003200B4B98470B4B984770BD0249102213
:10467000CB681A42FCD0E2E700080040180C00208A
:10468000C5500000A5500000F54500008150000015
:10469000DD430000733B000070B582B004001E4B88
:1046A000984780232268937201AD28001B4B9847DE
:1046B00000266E7029002000194B984719492000E8
:1046C000194B9847194B022200212000184DA8478A
:1046D000184B002200212000A847174B012200217F
:1046E0002000A847022200212000144DA8470022E4
:1046F00000212000A847012200212000A8472168AE
:104700000B890F4A1A408023DB0013430B810D4BAA
:104710001E7002B070BDC046B1730000D1520000DF
:10472000E1520000980D0020D5560000814800009D
:10473000E1500000854B000085470000315100002A
:10474000FFF3FFFF7806002010B50322074B1A7015
:10475000074C08492000084B9847084B9A680023EB
:1047600000212000064CA04710BDC046780600205E
:10477000180C0020980D0020D5560000800D002058
:104780003156000010B589794BB2002B06DB0E4B79
:104790001B78022B0FD0032B11D010BD0A4B1B78B6
:1047A000012B05D0042BF8D10848094B9847F4E7B2
:1047B000084B9847F1E70422034B1A70EDE70348D2
:1047C000034B9847E9E7C04678060020180C002004
:1047D000855500004947000070B5204B1B88204AD2
:1047E0009489E41AA4B2002C18D11E4A11885B18CF
:1047F0009BB213801A4AD2889A4223D01A4B1B7854
:10480000002B1FD1164B5B69002B23D09847002843
:1048100020D00022114B1A80114B9C89072C19D9EA
:104820000022114B1A7008240C4D2B880C4A9268F8
:10483000D218230000210D480D4EB0472B88E418F4
:104840002C8070BD04220B4B1A700B4907480B4B90
:104850009847F6E70122044B1A70E5E7740600203A
:10486000800D00207606002073060020180C002022
:104870003156000078060020980D0020D556000023
:1048800010B50C002C4B1B78002B07D02B4B1B6951
:10489000002B00D098470022274B1A702388082B42
:1048A00002D0274B984710BD244A264B1978117027
:1048B00059785170D8780002997809185180587940
:1048C0000002197909189180D97909029B795B183E
:1048D000D3801D4B9847002816D0184B1B787F2B90
:1048E00015D8164BDB88002B22D00023174A1380E3
:1048F000174A13800122104B1A700823114A002115
:104900001448154CA047CEE70D4B9847CBE7002342
:104910000E4A13800E4A13800222074B1A70082396
:10492000084A00210B480C4CA0470C4B9847BAE7AB
:104930000B4B9847B7E7C04678060020800D002053
:10494000C9450000980D0020417400007606002043
:1049500074060020180C002085560000D94700007E
:104960004947000010B5014B984710BDFD7300008A
:1049700010B5074C04212000064B98470221200067
:10498000054B98470120054B9847054B984710BDAC
:10499000180C0020C5500000A5500000DD430000A9
:1049A000713B000010B5040001000A480A4B98470B
:1049B00020000A4B9847837CDB070AD5837C0122C1
:1049C000934383740368002B03D0C1682200012045
:1049D000984710BD180C002025550000F143000039
:1049E00070B582B0040001AD28000D4B984720003F
:1049F0000C4B98472C700023EB700B4E29003000B5
:104A00000A4B98470F21214000223000084B98475D
:104A1000002221003000074B984702B070BDC0460D
:104A2000D1520000A5490000180C0020E1520000FE
:104A30000951000001520000F0B583B005000F00DD
:104A4000140001AE3000364B98473570082C13D84F
:104A5000002201AB5A702800324B98470482032190
:104A60003940012938D0022943D0002303293DD100
:104A7000042201ABDA7032E0102C03D8012201AB22
:104A80005A70E8E7202C03D8022201AB5A70E2E703
:104A9000402C03D8032201AB5A70DCE7802C03D8EA
:104AA000042201AB5A70D6E780235B009C4203D8F6
:104AB000052201AB5A70CEE780239B009C4203D8AD
:104AC000062201AB5A70C6E7174A002394420DD85C
:104AD000072201AB5A70BEE7022201ABDA7001A9CE
:104AE0001248134B98470023002806D0180003B043
:104AF000F0BD032201ABDA70F1E70F2129400B4C26
:104B00000C4B002220000C4EB04700222900200050
:104B10000A4EB047012229002000B0470123E5E7F3
:104B2000D1520000F1430000FF030000180C0020E8
:104B3000E152000015440000E15000003151000036
:104B400010B501000148024B984710BD180C002019
:104B50005B55000010B504000F2303400020022B1A
:104B600000D910BD21000448044B98472000044B95
:104B700098470120F5E7C046180C00208555000035
:104B8000A549000070B5344B1B78012B0AD0022BCD
:104B90005FD0324B1B69002B00D0984700222E4B70
:104BA0001A7070BD0D882D4B9B892D4A148862198F
:104BB000934201DA1D1BADB2284B986800192A00F8
:104BC0002849294B98476419A4B2254B1C80082D0D
:104BD0000AD0224B9C815B69002B02D098470028A9
:104BE00014D0224B9847DCE71C4BDA88204B1B88FB
:104BF0001B199A42EDDD194B9B89A3420CD0082367
:104C0000184A00211B481C4CA047CAE70522124B3A
:104C10001A701A4B9847C4E7104B5B69002B0BD0F6
:104C2000984700280FD012490D4A0B8810881B188E
:104C30000B8000231380E2E70522074B1A70002047
:104C40000E4B9847ADE70522034B1A700B4B984764
:104C5000A7E70B4B9847A4E778060020800D0020BB
:104C600074060020980D0020C7A0000049470000EE
:104C700076060020180C002085560000554B0000D9
:104C8000D947000070B504000F2303400020022B19
:104C900000D970BD2000094B984705002100084845
:104CA000084B9847AB7C0120DB07F2D5AB7C012297
:104CB0009343AB742B6898470120EAE7F143000067
:104CC000180C0020AB550000F0B587B0050003912B
:104CD000029201930F2606400024022E02D92000E2
:104CE00007B0F0BD644B9847041E00D0BDE028001B
:104CF000624B98470700EFF310835A4253410593E4
:104D000072B6BFF35F8F00225D4B1A70059A837CE9
:104D1000DB0708D5002AE2D00122594B1A70BFF3F5
:104D20005F8F62B6DBE7837C01210B438374002A2B
:104D300005D00122524B1A70BFF35F8F62B6029BFF
:104D40007B60019BBB600023FB600C9B3B600123ED
:104D5000039A13405A00BB7C02218B431343042265
:104D60009343BB746BB2002B20DB019B002B6FD0F5
:104D70009CB2444B9C425AD9398A1C001800424BC1
:104D80009847631A9AB23B8A9A4257D2BA7C042156
:104D90000A43BA74721E92013C49521831003C48D1
:104DA0003C4CA04744424441E4B298E7019B002BAD
:104DB00027D09DB2334B9D4206D9398A1D00180079
:104DC000314B98476B1A9DB2BB7C9B0707D5398A3C
:104DD0002800314B984789B24C424C41E4B2012043
:104DE00020404000BC7C02239C430443BC742B0045
:104DF000029A31002648294CA04744424441E4B27B
:104E00006DE7BB7C9B0705D5BB7C02229343BB743B
:104E10000025ECE7BB7C01229343BB740C9B002B69
:104E200025D02A00002100209847012457E7398A1D
:104E30002000194B9847631A9AB2A4E71300029A0C
:104E400031001348134CA04744424441E4B246E7C2
:104E5000BB7C01229343BB740C9B002B09D02A001E
:104E6000002100209847012439E7002437E7012476
:104E700035E7012433E7C046414B0000F143000011
:104E8000EC010020FF1F0000B1840000980B0020FF
:104E9000180C002085560000DD820000315600000D
:104EA000024B1B688022104398727047180C002038
:104EB000024B1B68987A4006400E7047180C002081
:104EC000014B986099817047800D002070B50320D8
:104ED000164B9847164C2268138901218B43138186
:104EE000144A03312000144EB047144A0021200018
:104EF000B047134A01212000B047124A0221200086
:104F0000B04704212000104DA84700212000A847E9
:104F100001212000A84702212000A8470B4A0621B2
:104F20002000B04706212000A84770BDDD430000E7
:104F3000180C0020714900008150000065490000F4
:104F40009946000029460000A5500000F5450000E4
:104F500070B582B0EFF310835A425341009372B69A
:104F6000BFF35F8F0026184B1E70009C01AD280018
:104F7000164B9847AE70164E2A0016493000164B55
:104F800098473000154B9847154B9B8C9B0614D4C3
:104F90001349D022CB681340D02BFBD10120114BF9
:104FA0009847114B9847002C05D00122064B1A70E8
:104FB000BFF35F8F62B602B070BD09491022CB68A3
:104FC0001A42FCD0EAE7C046EC010020F95D00007F
:104FD000180C002000500041095E00000557000039
:104FE00000080040DD430000CD4E0000F0B5C6468D
:104FF00000B50C00904600280FD1002A11DD8F1853
:10500000094E0A4D306821002B6898470134BC4294
:10501000F8D1404604BC9046F0BD01235B4298465F
:10502000F7E78046F5E7C046A80D0020A00D002058
:10503000F0B5C64600B50E0015000138022810D89C
:10504000002A11D000240C4B98460C4F4346186898
:10505000315D3B689847002808DB0134A542F5D153
:1050600006E00124644203E0140001E001246442EC
:10507000200004BC9046F0BDA80D0020A40D002027
:1050800010B50B002E339B001A50AA225200490083
:10509000835A034C095B0B438352002010BDC0466A
:1050A00088BF00004900064BCB5A02689383AB21AE
:1050B0004900425A1A434252026813830020704743
:1050C00088BF00004900054BCA5AAB214900435A2A
:1050D0009343435203689A820020704788BF0000C0
:1050E00010B58C00A4183434A4000419636040186F
:1050F0005930FF30037803498A5C13430370002062
:1051000010BDC04698BF000010B58B009B1834330B
:105110009B00C31800245C6040185930FF30034BDB
:105120009A5C037893430370002010BD98BF000081
:1051300070B50F230B40C4186134FF3425782F4E0F
:10514000B65C35432570002A29D1002B12D10325E6
:105150000A24FF3406683555032A09D149B20029CB
:1051600044DB02685B01D3180A33FF3320221A7034
:10517000002070BD4CB2002C08DB5C010568AC4619
:1051800064440A34FF3401252570E5E75C010568B5
:10519000AC4664440A34FF3402252570DCE7012A5A
:1051A0001AD1002B05D102680C210A23FF33D154F8
:1051B000DEE749B2002907DB02685B01D3180A3336
:1051C000FF3304221A70D3E702685B01D3180A3355
:1051D000FF3308221A70CBE7022ABDD102685B01B7
:1051E000D3180A33FF3310221A70C1E702685B013B
:1051F000D3180A33FF3340221A70B9E798BF000072
:1052000070B50F230B40C4186134FF342F4DAE5CD2
:105210002578B5432570002A29D1002B12D103250A
:105220008424640006683555032A09D149B200294F
:1052300044DB02685B01D3180933FF3320221A7064
:10524000002070BD4CB2002C08DB5C010568AC4648
:1052500064440934FF3401252570E5E75C010568E5
:10526000AC4664440934FF3402252570DCE7012A8A
:105270001AD1002B05D102680C210933FF33D15418
:10528000DEE749B2002907DB02685B01D318093366
:10529000FF3304221A70D3E702685B01D318093385
:1052A000FF3308221A70CBE7022ABDD102685B01E6
:1052B000D3180933FF3310221A70C1E702685B016B
:1052C000D3180933FF3340221A70B9E798BF0000A2
:1052D00000230370437083700133C3707047000074
:1052E000F0B50C780F23234064B2CA78042A70D832
:1052F0009200894DAA589746026808335B01002145
:105300009954002282E05C01026894466444802241
:105310005200A55CE43A6D0778D1E432A65C7025B2
:10532000E43A2E4272D15F3DE432A5541A000832AD
:1053300052010468A4182F35657100688218802016
:1053400010718A78002A1FD05801744A12185468C4
:1053500080200006044354605469204350610725AF
:105360004C785A016D4B9B1858682C4024076C4EA2
:1053700030402043586049785A6929400907324033
:105380000A435A61002241E05801644A12185068E9
:105390004000400850605069400040085061DEE71E
:1053A000002C35DB5D010268944665448022520082
:1053B000AE5CE43A760729D180267600AA5D022702
:1053C0003A43AA55026818000830400112184020DC
:1053D0005071E20F4F785D00AD182D014F4E7519D9
:1053E000686807243C4024074D4E304020436860E5
:1053F0008978002900D088E05B009B181B01474A90
:10540000D3185A68520052085A6000221000F0BDAA
:105410005D0102689446654480225200AF5C7026AC
:10542000E43A3742F2D19036AA5D20273A43AA5592
:105430000268180008304001121880201071C8E777
:10544000002C17DB5D0102689446654480225200FF
:10545000AE5CE43A7607D9D180267600AA5D0327B0
:105460003A43AA550268180008304001121840203B
:105470005071AEE75D010268944665448022520097
:10548000AF5C7026E43A3742C0D19036AA5D30272F
:105490003A43AA55026818000830400112188020CB
:1054A000107196E7002C17DB5D0102689446654495
:1054B00080225200AE5CE43A7607A7D180267600BF
:1054C000AA5D04273A43AA55026818000830400133
:1054D0001218402050717CE75D01026894466544D3
:1054E00080225200AF5C7026E43A374200D08DE74C
:1054F0009036AA5D40273A43AA5502681800083042
:10550000400112188020107163E7696880231B0630
:105510000B436B60002279E774BF0000AC0D0020E4
:10552000FFFFFF8F0F230B4049B200290ADB08332E
:105530005B010268D218402151710268D318012220
:10554000DA71704708335B010268D218802111714B
:105550000268D3180222DA71F3E70F230B4049B235
:10556000002907DB026808335B01D3189879C0066D
:10557000C00F7047026808335B01D3189879800622
:10558000C00FF6E70F230B4049B2002906DB026883
:1055900008335B01D31810225A7170470268083330
:1055A0005B01D31820225A71F7E730B50F230B4067
:1055B00049B200291DDB5901026852188324640096
:1055C000145DE40614D51025822464001555026884
:1055D00052180821FF31515C890609D5E43C0821A5
:1055E000FF315454026808335B01D31801221A7149
:1055F00030BD59010268521883246400145DA4066A
:10560000F6D5202582246400155502685218082119
:10561000FF31515C4906EBD5C43C0821FF3154549D
:10562000026808335B01D31802221A71E0E7000018
:1056300030B50C00083464010568645D6406640FCD
:105640001C25002C01D1280030BD4C010B4D2D191B
:105650002C002A616A690A4D2A40626162699B04D2
:105660009B0C920B92031343636103680831490159
:10567000591880234B710025E5E7C046AC0D00208A
:10568000FF3F00F030B50C00083464010568645D2C
:1056900064071C25002C01D1280030BD0B4C4D01A6
:1056A0002A51621954689B041B09094D2C4023435D
:1056B000536053689B0B9B03536003680831490197
:1056C000591840230B710025E6E7C046AC0D0020B9
:1056D000FF3F00F0094B19605A68094911408022C8
:1056E00092020A435A605A68920B92035A60026807
:1056F000402182235B00D15400207047AC0D002074
:10570000FF3F00F00268137802210B431370026818
:105710009378022BFCD07047F0B5DE4657464E46D4
:105720004546E0B583B0C44B1F683D682B78DB0964
:1057300014D12E8CB6B2002E00D02DE2AE8BB6B2B4
:10574000AB235B00FB5AAA225200BD5A1D403540D4
:105750000024BA4FB84B9946984608E22B8C9BB26E
:10576000002B00D13DE1288C80B2B54B9847040056
:105770001F2800D935E1030008335B01ED18ED79EE
:10578000EDB2AB0741D0AF4A012383401168994382
:105790001160030008335B013A68944663440322B6
:1057A000DA713B18AE331B78DB072ED5A64B187089
:1057B0003A68030008335B019B5C9B079B0F012B3E
:1057C00000D194E04201A14B9B185A681201920C3F
:1057D00090B29D494A805A689204920C8A805A6815
:1057E0009B490A405A60002807D16201974B9B18D9
:1057F0005B689B049B0C944A53808F4B1868A31CD6
:105800001B01C3185B68904998476B071FD58A4BEB
:1058100018680268230008335B019B5C9B065B0FE2
:10582000022B75D0230008335B019B5C9B065B0F4A
:10583000032B00D19EE06201844B9B1800229A72D8
:1058400003682200083252019B180422DA712B07E8
:1058500015D57C4A0123A340116899431160764B0A
:105860001868230008335B010268944663440822E9
:10587000DA710319AE331B789B0700D594E0EB0671
:1058800015D5704A0123A3401168994311606A4BF2
:105890001868230008335B010268944663441022B1
:1058A000DA710319AE331B785B0700D58AE0AB06CB
:1058B00000D42FE1634A0123A3401168994311608A
:1058C0005D4B1868230008335B010268944663440B
:1058D0002022DA710319AE331B781B0700D419E1BB
:1058E00059490C7024010419236B984712E14201B5
:1058F000564B9B185A689204920C53494A805A6836
:105900001201920C8A805A68920B92035A6074E7D3
:10591000230008335B019B5C9B079B0F012B81D10C
:1059200061014A4B5B1808339B78DB0700D479E7A9
:10593000444A0123A3401168994311606201434B1B
:105940009B1800229A72230008335B010268944678
:1059500063440422DA710319AE331B789B0700D429
:1059600075E739490C7010234B702301C3189B6AEB
:1059700098476CE7230008335B019B5C9B079B0FF8
:10598000012B00D057E76201304B9B1800229A721E
:10599000230008335B010268D2180421D171026828
:1059A000D31810225A7152E727490C706201274B15
:1059B0009B18DB891F2213404B702301C3189B6A7D
:1059C00098475CE720490C706201204B9B185B688C
:1059D0001B019B0C4B802301C318DB6A00219847F5
:1059E00065E7AC8BA4B2630738D50423AB83154BB2
:1059F0001D6801230120102602E00133082B29D065
:105A000002009A401542F8D039681A000832520153
:105A1000525C9206520F032AEFD11A00083252014B
:105A2000525C9207920F012AE7D11A000832520104
:105A300089180E71E1E7C046D006002088BF00003B
:105A4000F9840000E0060020E4060020AC0D0020F0
:105A5000FF3F00F09D33FB5CDB0762D423070BD5CF
:105A60000022AF4B1A60AF4B18680823026893837B
:105A70009D33C35C9B0758D4630608D5A94B1868AF
:105A80004023026893836533C35CDB0650D4A306CE
:105A900008D5A44B18682023026893838533C35C20
:105AA0001B0748D4E30608D59E4B186810230268EC
:105AB00093839533C35C5B0740D423060BD5002248
:105AC000974B1A60974B186880230268938325339D
:105AD000C35C9B0635D4E3050CD50022904B1A60BD
